:020000040800F2
:1000000008AA00201D020008415D000853210008D5
:100010003D5D0008ED0600082F8600080000000086
:100020000000000000000000000000000561000862
:100030002109000800000000DB6000085D61000885
:1000400037020008370200083702000837020008AC
:10005000370200083702000837020008370200089C
:10006000370200083702000837020008370200088C
:10007000370200083702000837020008370200087C
:10008000370200083702000837020008370200086C
:1000900011850008370200083702000837020008FF
:1000A000370200083702000837020008370200084C
:1000B000370200083702000837020008370200083C
:1000C000370200083702000837020008370200082C
:1000D00037020008C1640008370200083702000830
:1000E000370200083702000837020008370200080C
:1000F00037020008370200083702000837020008FC
:1001000037020008370200083702000837020008EB
:1001100037020008370200083702000837020008DB
:1001200037020008370200083702000837020008CB
:1001300000F002F800F062F80AA090E8000C824497
:100140008344AAF10107DA4501D100F057F8AFF274
:10015000090EBAE80F0013F0010F18BFFB1A43F0A5
:10016000010318477CA300009CA300000A444FF041
:10017000000C10F8013B13F0070408BF10F8014B06
:100180001D1108BF10F8015B641E05D010F8016B4B
:10019000641E01F8016BF9D113F0080F1EBF10F8AF
:1001A000014BAD1C0C1B09D16D1E58BF01F801CBD2
:1001B000FAD505E014F8016B01F8016B6D1EF9D555
:1001C0009142D6D37047000000230024002500266A
:1001D000103A28BF78C1FBD8520728BF30C148BFAA
:1001E0000B607047642900F04780782900F0AB80ED
:1001F000002070471FB51FBD10B510BD00F048FAB4
:100200001146FFF7F7FF08F083FA00F066FA03B42F
:10021000FFF7F2FF03BC08F030FA000009488047FE
:1002200009480047FEE7FEE7FEE7FEE7FEE7FEE7D8
:10023000FEE7FEE7FEE7FEE704480549054A064BF0
:1002400070470000656100083101000808A4002023
:1002500008AA002008A6002008A600207047000079
:100260000FB4044910B503AA029800F0F7F910BCC6
:100270005DF814FB180000202DE9F041064600242B
:1002800010687529314616A510D0AFF300800028FC
:1002900002DA404213A507E031688A0701D512A5AA
:1002A00002E0490704D511A5012401E0AFF3008065
:1002B00000210A2206F1240709E0B0FBF2FCB0FBA2
:1002C000F2F302FB1C00303078541846491C002819
:1002D000F3D123462A463046BDE8F04100F04CB940
:1002E000000000002D0000002B0000002000000096
:1002F000F0B40D460188090502D5214C7C4402E08A
:100300001F4C7C440E34002100F1240608E002F06A
:100310000F071209E75D42EA03721B097754491C73
:1003200052EA0307F3D102780023120704D5702D97
:1003300006D009B1022311342246F0BC00F01CB9EA
:1003400001231034F8E770B504460D4621461068C5
:10035000AFF30080024629462046BDE870400023E6
:10036000C6E7D21D22F00703D3E90023C0E70368E4
:10037000126843F0200303600823C3610023B7E73A
:10038000A4A100002DE9F05F894604464FF0000A61
:10039000DFF874B1FB44C0F820A02046E16888472C
:1003A000002874D0252806D0D4E901219047206A7E
:1003B000401C2062F1E700265F462046E16888473E
:1003C0002028054607DB312D05D2781910F8200CBE
:1003D00008B10643F1E7B00701D526F00406C4F8DA
:1003E0001CA00027C4F818A02A2D09D0284608F020
:1003F0003DF938B304EB8708303DC8F8185019E0D0
:1004000059F8041B204604EB87029161E168884794
:10041000012F054618D1E069002820DA26F02006D1
:100420001DE0D8F8180000EB800005EB40003038E4
:10043000C8F818002046E1688847054608F016F914
:100440000028EED1012F0AD02E2D08D12046E168D8
:1004500088477F1C0546022F46F02006C4DBA069B2
:10046000002803DA404246F00106A061F00701D0FF
:1004700026F010066C2D0BD0682D09D04C2D39D0EC
:100480006A2D35D0742D35D07A2D33D016E038E072
:10049000E1682F4620468847B842054609D16C2FAF
:1004A00026D04FF48060E168064320468847054621
:1004B00004E06C2F1AD04FF4807006430DB3A5F101
:1004C0004100192802D8203546F400664A462946DC
:1004D000204626604E46FFF785FE80B101280BD0EE
:1004E000F61D26F0070000F1080956E74020E4E772
:1004F0008020D8E70020D6E706F104094DE728461A
:1005000052E7206ABDE8F09F34A1000010B5203A00
:10051000C0F00B80B1E81850203AA0E81850B1E8BC
:100520001850A0E81850BFF4F5AF5FEA027C24BF72
:10053000B1E81850A0E8185044BF18C918C0BDE869
:1005400010405FEA827C24BF51F8043B40F8043B32
:1005500008BF7047D20728BF31F8023B48BF11F8E7
:10056000012B28BF20F8023B48BF00F8012B704741
:1005700070477047704770472DE9F0470D46994620
:100580009246044600F124080168880604D5E06913
:1005900021F01001216000E00120A84201DD471B8D
:1005A00000E00027A1697A1902EB0900081AA0618E
:1005B0002078C00602D42046AFF30080002608E071
:1005C000D4E901211AF806009047206A401C761CE5
:1005D00020624E45F4DB2078C0060AD52046AFF3F2
:1005E000008006E0D4E9012130209047206A401CB9
:1005F0002062381EA7F10107F4DC07E0D4E90121ED
:1006000018F805009047206A401C2062281EA5F1BA
:100610000105F3DC2046AFF300802078000602D508
:100620000220BDE8F0870120FBE7000001694A1CB9
:1006300002610878704700B58FB0CDE90131002123
:10064000059105497944CDE9031011466846FFF745
:1006500099FE0FB000BD0000E5FFFFFF074B70B52E
:100660000D467B44FFF7E7FF0446284600F008F8F4
:1006700010B14FF0FF3070BD204670BD8F8000007C
:10068000007B00F08000704700487047A8A300205E
:100690007546FFF7F9FFAE4605006946534620F060
:1006A0000700854618B020B5FFF7C6FDBDE820401D
:1006B0004FF000064FF000074FF000084FF0000B1E
:1006C00021F00701AC46ACE8C009ACE8C009ACE8D1
:1006D000C009ACE8C0098D46704710B50446AFF3B9
:1006E00000802046BDE81040FFF791BD00BFFEE747
:1006F00070B505460C461646042D15D007DC7DB1B5
:10070000012D0ED0022D0DD0032D50D10BE0202D48
:100710000BD0212D30D0222D47D0232D47D145E0BD
:1007200046E045E044E043E042E02078617840EA7A
:100730000120A17840EA0140E17840EA01601E49C9
:1007400008602079087160794871A079887108463D
:1007500001791AA0FFF784FD174841791DA0FFF722
:100760007FFD1548817922A0FFF77AFD12480168C4
:1007700026A0FFF775FD1BE00F48007820700E489B
:100780000088000A60700C480068000CA0700A48DD
:100790000068000EE0700848007920710648407932
:1007A000607105488079A07102E001E000E000BFBF
:1007B00000BF002070BD0000A40100206C696E65C0
:1007C000636F64696E672E666F726D61743A25643B
:1007D0000D0A00006C696E65636F64696E672E7048
:1007E0006172697479747970653A25640D0A000044
:1007F0006C696E65636F64696E672E6461746174A1
:100800007970653A25640D0A000000006C696E6518
:10081000636F64696E672E626974726174653A25EC
:10082000640D0A000020704710B50349034805F025
:100830009DFF002010BD0000E0A20020C89800200D
:100840002DE9F04104460E4600254EE0605D2D493D
:100850000978002948D12C490978022929D12B4946
:10086000097829B92A4908700121284A11703BE00A
:10087000274A127840EA0221264A1268B2F5964FBA
:1008800008D2244A13681268521C224F3A60224A46
:1008900022F8131000221D4B1A701E4A1268B2F57E
:1008A000964F05D30122174B1A700022164B1A706F
:1008B0001AE01549097829B9AA2815D10121124A47
:1008C000117011E01049097801290DD1BB2808D118
:1008D00002210D4A117000210E4A11600B4A11705D
:1008E00002E00021084A11706D1C3068A842ADD8A2
:1008F00021460A4805F03AFF084805F013FF00209A
:10090000BDE8F081000000204801002050010020D7
:10091000510100204C010020B0010020C8980020A7
:100920007047000010B502A0FFF79AFC10BD000050
:1009300075736220656E746572206C6F7720706FBE
:10094000776572206D6F64650D0A000070470000C6
:1009500070B50A480468001D0568001D0668344427
:1009600054B108220649204601F0F5FB042204494F
:100970001031284601F0EFFB70BD0000E8F7FF1FC3
:100980008A01002070B50446002594F82100022851
:1009900003D00420A0630125C1E02068006820F096
:1009A0000E00216808602068006820F001002168BE
:1009B00008605C492068884252D95A4978392068D1
:1009C000884201D1012047E05649643920688842B5
:1009D00001D1102040E0534950392068884201D1AC
:1009E000801539E04F493C392068884201D1801494
:1009F00032E04C4928392068884202D14FF48030D7
:100A00002AE0484914392068884202D14FF4801006
:100A100022E044492068884201D140041CE0424958
:100A20002068884201D1012016E03F491431206836
:100A3000884201D110200FE03B49283120688842CC
:100A400001D1801508E038493C312068884201D145
:100A5000801401E04FF480303349091F086051E0F1
:100A6000304978392068884201D1012047E02D497A
:100A700064392068884201D1102040E0294950396A
:100A80002068884201D1801539E026493C39206828
:100A9000884201D1801432E02249283920688842F6
:100AA00002D14FF480302AE01E4914392068884270
:100AB00002D14FF4801022E01A492068884201D107
:100AC00040041CE018492068884201D1012016E04A
:100AD000154914312068884201D110200FE01249D5
:100AE00028312068884201D1801508E00E493C3148
:100AF0002068884201D1801401E04FF48030094918
:100B000080394860012084F8210000BF002084F86B
:100B1000200000BF606B10B12046616B88472846FB
:100B200070BD000080000240080402402DE9F84733
:100B3000024600239C467BE14FF0010808FA03F4CB
:100B4000D1F8008008EA0400A0427DD1DFF8F4A2C9
:100B5000D1F80480A8EB0A09D0453AD014DCB8F1EA
:100B6000030F50D009DCB8F1000F31D0B8F1010FFC
:100B70001CD0B8F1020F49D120E0B8F1110F18D004
:100B8000B8F1120F42D11EE0B9F5881F25D006DC5E
:100B9000B9F5803F20D0B9F5801F37D11AE0B9F5FB
:100BA000001F18D0B9F5041F30D117E0D1F80CC0E0
:100BB0002DE0D1F80C8008F1040C28E0D1F80C806D
:100BC00008F1080C23E0D1F80C8008F10C0C1EE0B1
:100BD00000BF00BF00BF00BF00BF00BFD1F808804A
:100BE000B8F1000F02D14FF0040C0BE0D1F80880EF
:100BF000B8F1010F03D14FF0080C146102E04FF07F
:100C0000080C546103E04FF0000C00E000BF00BF8F
:100C1000FF2801D8904601E002F104084646FF286B
:100C200002D84FEA830803E0A3F108084FEA8808D6
:100C30004746D6F800804FF00F0909FA07F928EA6D
:100C400009080CFA07F900E07AE048EA0908C6F852
:100C50000080D1F8048008F08058B8F1805F6FD12F
:100C600000BFDFF8E481D8F8188048F00108DFF809
:100C7000D891C9F81880C846D8F8188008F001083B
:100C8000CDF8008000BF00BF4FEAB9384FEA9309A2
:100C900058F829504FEA83784FEA18794FF00F0837
:100CA00008FA09F825EA0805DFF8A081424502D1D3
:100CB0004FF0000824E0DFF89881424502D14FF060
:100CC00001081DE0DFF88C81424502D14FF0020897
:100CD00016E0DFF88481424502D14FF003080FE0AF
:100CE000DFF87881424502D14FF0040808E0DFF8D0
:100CF0007081424502D14FF0050801E04FF006082F
:100D00004FEA83794FEA197908FA09F848EA0505A4
:100D1000DFF850814FEA930948F82950D1F8048050
:100D200008F48038B8F5803F0BD1DFF83C81D8F863
:100D3000008048EA0008DFF83091C9F800800AE036
:100D400075E0DFF82481D8F8008028EA0008DFF891
:100D50001891C9F80080D1F8048008F40038B8F57B
:100D6000003F0ED1DFF8008108F10408D8F80080B8
:100D700048EA0008DFF8F09009F10409C9F800809A
:100D80000DE0DFF8E48008F10408D8F8008028EAD4
:100D90000008DFF8D49009F10409C9F80080D1F8FF
:100DA000048008F48018B8F5801F0ED1DFF8B880F1
:100DB00008F10808D8F8008048EA0008DFF8A89091
:100DC00009F10809C9F800800DE0DFF89C8008F1FE
:100DD0000808D8F8008028EA0008DFF88C9009F1AC
:100DE0000809C9F80080D1F8048008F40018B8F5A3
:100DF000001F0ED1DFF8708008F10C08D8F80080D1
:100E000048EA0008DFF8609009F10C09C9F8008091
:100E10000DE0DFF8548008F10C08D8F8008028EACB
:100E20000008DFF8449009F10C09C9F800805B1C48
:100E3000D1F8008028FA03F8B8F1000F7FF47CAEF7
:100E4000BDE8F887000011100010024000080140C2
:100E5000000C014000100140001401400018014046
:100E6000001C014008000140000401400AB101617A
:100E700001E00B04036170470148006870470000FF
:100E80000800002003480068034909780844014924
:100E900008607047080000201000002010B50848C6
:100EA000006840F0100006490860052000F080F856
:100EB0000F2000F007F800F02BF8002010BD000014
:100EC0000020024070B504460E4800784FF47A7155
:100ED000B1FBF0F00C490968B1FBF0F5284600F0D1
:100EE00061FF08B1012070BD102C07D200222146FD
:100EF000501E00F01EF80548046001E00120F2E7F2
:100F00000020F0E710000020040000200C0000206A
:100F1000704701460846002809DB00F01F03012244
:100F20009A4043099B0003F1E023C3F8002100BF6E
:100F300070472DE9F05F80460D461646002707F002
:100F400079FB074639462A46334601F00700C0F1CF
:100F5000070ABAF1040F02D94FF0040A01E0C0F108
:100F6000070AD14600F1040ABAF1070F02D24FF086
:100F7000000A01E0A0F1030AD4464FF0010A0AFA80
:100F800009FAAAF1010A0AEA020A0AFA0CFA4FF06F
:100F9000010B0BFA0CFBABF1010B0BEA030B4AEA5A
:100FA0000B042146404607F04DFBBDE8F09F0000D2
:100FB00000BF00F00702064B19684FF6FF03194007
:100FC000044B0B4343EA0221014B196000BF7047F9
:100FD0000CED00E00000FA0570B505460C4604F083
:100FE0008000802806D104F0070605F1280000EBF8
:100FF000461103E005F5947000EB44111AB9002086
:101000000873CB8004E0012008730B81180C488121
:10101000002070BD704770B504460D4604F12801EC
:1010200001EB45114A692946D4F8680205F012FF20
:1010300070BD70B504460D4604F5947101EB451181
:101040004A692946D4F8680205F084FF70BD70B57E
:1010500004460E4606F08000802808D106F00701FD
:1010600004F1280000EB41150120687007E006F04C
:10107000070104F5947000EB41150020687006F03C
:101080000700287000BF94F82802012801D102202F
:1010900070BD012084F8280200BF2946206806F0B0
:1010A00002FE00BF002084F8280200BF00BFEFE767
:1010B00070B504460E4606F00F006168884201D9FB
:1010C000012070BD06F08000802808D106F00701DD
:1010D00004F1280000EB41150120687007E006F0DC
:1010E000070104F5947000EB4115002068700020A2
:1010F000A87006F00700287000BF94F828020128A5
:1011000001D10220DDE7012084F8280200BF294632
:10111000206806F028FF00BF002084F8280200BFE6
:1011200000BFCEE7024601F0070302F5947000EB22
:101130004310C06970472DE9F04705460E469046BA
:101140001F464FF0000906F08000802808D106F005
:10115000070105F1280000EB41140120607007E051
:1011600006F0070105F5947000EB41140020607053
:1011700006F007002070C4F81080E770607808B1AE
:101180002078E081022F01D10020207100BF95F866
:101190002802012802D10220BDE8F087012085F84D
:1011A000280200BF2146286806F02EFB00BF002061
:1011B00085F8280200BF4846EEE72DE9F0410546D4
:1011C0000E461746984606F0070105F5947000EBA9
:1011D00041146761C4F818800020E061607006F077
:1011E0000700207006F0070020B92146286806F0A5
:1011F00055FF03E02146286806F050FF0020BDE8B7
:10120000F08170B504460D4605F00700616888421C
:1012100001D9012070BD05F08000802808D105F0BB
:10122000070104F1280000EB41160120707005E071
:1012300004F5947000EB4516002070700120B0702A
:1012400005F00700307000BF94F82802012801D192
:101250000220DFE7012084F8280200BF3146206821
:1012600006F0EEFE05F0070020B904F50C712068C9
:1012700006F076FE00BF002084F8280200BF00BF01
:10128000C8E72DE9F04105460E461746984606F098
:10129000070105F1280000EB41146761C4F81880CC
:1012A0000020E0610120607006F00700207006F069
:1012B000070020B92146286806F0F0FE03E0214629
:1012C000286806F0EBFE0020BDE8F08110B504466A
:1012D000206807F025F900F40040B0F5004F02D176
:1012E000204604F02EFD206807F01AF900F4806013
:1012F000B0F5806F0ED12068B0F8440020F4806013
:101300002168A1F84400204600F05AF90021204647
:1013100000F076F9206807F003F900F48040B0F59A
:10132000804F07D12068B0F8440020F48040216845
:10133000A1F84400206807F0F3F800F40050B0F57D
:10134000005F07D12068B0F8440020F40050216805
:10135000A1F84400206807F0E3F800F48050B0F5ED
:10136000805F1CD12068B0F840004FF6FB71084048
:101370002168A1F840002068B0F840004FF6F771EE
:1013800008402168A1F84000204600F02BF92068B1
:10139000B0F8440020F480502168A1F8440020688F
:1013A00007F0BEF800F40060B0F5006F2AD12068A5
:1013B000B0F8400040F008002168A1F84000206823
:1013C000B0F8440020F400602168A1F844002068CF
:1013D000B0F8400040F004002168A1F84000206807
:1013E00007F09EF800F48050B0F5805F07D12068C8
:1013F000B0F8440020F480502168A1F84400204651
:1014000000F040F9206807F08BF800F40070B0F5A8
:10141000007F0AD12068B0F8440020F400702168F1
:10142000A1F84400204600F0E4F8206807F078F8BE
:1014300000F48070B0F5807F07D12068B0F84400D8
:1014400020F480702168A1F8440010BD30B585B04B
:10145000044614B9012005B030BD94F8290228B91A
:10146000002084F82802204600F088F8032084F841
:101470002902206806F06AFD142204F11001684672
:10148000FFF744F894E80F0006F009FC20B10220B1
:1014900084F829020120DEE70021206807F09CF88B
:1014A000002526E0012104F1280000EB45104170E1
:1014B00004F1280000EB4510057004F1280000EB52
:1014C0004510C581002104F1280000EB4510C170D2
:1014D00004F1280000EB4510016104F1280000EB45
:1014E0004510416104F1280000EB45108161681C42
:1014F000C5B26068A842D5D8002520E0002104F5D7
:10150000947000EB4510417004F5947000EB4510A9
:10151000057004F5947000EB4510C17004F59470EB
:1015200000EB4510016104F5947000EB451041613A
:1015300004F5947000EB45108161681CC5B26068C9
:10154000A842DBD8142204F110016846FEF7DEFF42
:1015500094E80F0006F0EBFC20B1022084F8290289
:10156000012078E7002084F82400012084F8290273
:10157000206806F0D9FC00206DE7000038B504466D
:101580000D492068884215D100BF0C48C06940F45D
:1015900000000A49C8610846C06900F400000090D4
:1015A00000BF00BF002211461420FFF7C2FC142028
:1015B000FFF7AFFC38BD0000005C004000100240A7
:1015C00070B504460125A068022801D0FFF7BEF9D6
:1015D0002946D4F8680205F0EDFDD4F8680205F05C
:1015E0009FFD70BD10B50446D4F8680205F0C6FD35
:1015F00010BD10B50446D4F8680205F0CAFD10BD50
:1016000070B504460D4600BF94F82802012801D1A8
:10161000022070BD012084F8280200BF84F8245005
:101620002946206806F0DBFF00BF002084F828026E
:1016300000BF00BFEDE710B5044604F50C71D4F807
:10164000680205F0CEFD10BD10B5044600BF94F849
:101650002802012801D1022010BD012084F82802AF
:1016600000BF01212046FFF7D5FC206806F059FC99
:10167000206806F03DFF00BF002084F8280200BF6C
:1016800000BFE9E710B50446D4F8680205F002FE91
:10169000A06928B10448006840F0060002490860CB
:1016A000FFF740F910BD000010ED00E070B50446F2
:1016B0000D460CB9012070BD5A48006800F00700C3
:1016C000A8420ED25748006820F007002843554929
:1016D00008600846006800F00700A84201D0012019
:1016E000E9E7207800F0020002281DD1207800F000
:1016F0000400042805D14C48406840F4E0604A49A1
:101700004860207800F00800082805D14648406865
:1017100040F46050444948604348406820F0F0007D
:10172000A168084340494860207800F0010078B380
:101730006068012806D13C48006800F4003090B988
:101740000120B8E76068022806D13748006800F039
:10175000007040B90120AEE73348006800F0020095
:1017600008B90120A7E73048406820F0030061680D
:1017700008432D494860FFF77FFB064609E0FFF765
:101780007BFB801B41F28831884202D9032092E71B
:1017900007E02548406800F00C006168B0EB810F5D
:1017A000EDD12048006800F00700A8420ED91D487E
:1017B000006820F0070028431A49086008460068BE
:1017C00000F00700A84201D0012074E7207800F063
:1017D0000400042807D11448406820F4E060E16860
:1017E000084311494860207800F00800082808D113
:1017F0000D48406820F46050216940EAC1000A4960
:10180000486000F03FF808494968C1F30311074AEE
:10181000515CC8400649086006480068FFF752FB63
:10182000002048E70020024000100240CC8C000855
:10183000040000200C0000200148006870470000F0
:101840000400002000B5FFF7F7FF04494968C1F321
:101850000221034A515CC84000BD00000010024054
:10186000DC8C000800B5FFF7E7FF04494968C1F3C5
:10187000C221034A515CC84000BD00000010024074
:10188000DC8C0008F0B585B00FF26C0C9CE8E01021
:1018900001A8A0E8E0101CA52D68009500210022F9
:1018A000002300240020194D696801F00C05F5B1F2
:1018B000042D02D0082D19D101E0154819E001AD21
:1018C000C1F38346AC5D01F4803555B10F4D6D68B1
:1018D000C5F340451DF805200D4D6543B5FBF2F3FA
:1018E00002E00C4D04FB05F3184602E000BF084877
:1018F00000BF00BF05B0F0BD0203040506070809DC
:101900000A0B0C0D0E0F1010010200000010024017
:1019100000127A0000093D00F8B504460CB9012018
:10192000F8BD207800F00100002878D0F848406821
:1019300000F00C0004280CD0F548406800F00C00C2
:10194000082811D1F248406800F48030B0F5803F9B
:101950000AD1EF48006800F4003000285FD06068CA
:1019600000285CD10120DBE700BF6068B0F5803F54
:1019700006D1E748006840F48030E549086028E077
:10198000606858B9E248006820F48030E049086097
:101990000846006820F4802008601AE06068B0F50E
:1019A000A02F0BD1DA48006840F48020D8490860A5
:1019B0000846006840F4803008600AE0D4480068B7
:1019C00020F48030D24908600846006820F4802066
:1019D000086000BF606888B1FFF74EFA054606E070
:1019E000FFF74AFA401B642801D9032098E7C8484A
:1019F000006800F400300028F2D010E0FFF73CFA55
:101A0000054606E0FFF738FA401B642801D9032099
:101A100086E7BF48006800F400300028F2D1207843
:101A200000F00200022857D1B948406800F00C00CD
:101A300050B1B748406800F00C00082818D1B448ED
:101A4000406800F4803098B9B148006800F00200A6
:101A500020B12069012801D0012061E7AC4800686D
:101A600020F0F800616940EAC100A949086033E04C
:101A70002069E8B10120A7490860FFF7FDF9054694
:101A800006E0FFF7F9F9401B022801D9032047E7D8
:101A90009F48006800F002000028F2D09C480068CF
:101AA00020F0F800616940EAC1009949086013E03C
:101AB000002098490860FFF7DFF9054606E0FFF7C8
:101AC000DBF9401B022801D9032029E79048006870
:101AD00000F002000028F2D1207800F00800082869
:101AE0002DD1A069B8B101208B490860FFF7C4F976
:101AF000054606E0FFF7C0F9401B022801D9032084
:101B00000EE78348406A00F002000028F2D001206E
:101B100004F0E4FA13E000207F490860FFF7ACF915
:101B2000054606E0FFF7A8F9401B022801D903206B
:101B3000F6E67748406A00F002000028F2D12078EB
:101B400000F00400042873D100277148C06900F038
:101B5000805070B900BF6E48C06940F080506C4939
:101B6000C8610846C06900F08050009000BF00BF07
:101B700001276A48006800F48070B0B967480068BF
:101B800040F4807065490860FFF776F9054606E085
:101B9000FFF772F9401B642801D90320C0E65F48B3
:101BA000006800F480700028F2D000BFE0680128CF
:101BB00006D15748006A40F001005549086227E005
:101BC000E06858B95248006A20F0010050490862A4
:101BD0000846006A20F00400086219E0E068052861
:101BE0000BD14B48006A40F004004949086208469E
:101BF000006A40F0010008620AE04548006A20F0EF
:101C00000100434908620846006A20F004000862A7
:101C100000BFE068A0B1FFF72FF9054609E0FFF724
:101C20002BF9401B41F28831884202D9032077E624
:101C300022E03748006A00F002000028EFD012E0EE
:101C4000FFF71AF9054608E0FFF716F9401B41F2C5
:101C50008831884201D9032062E62D48006A00F0ED
:101C600002000028F0D1012F05D12948C06920F0D9
:101C700080502749C86100BFE069C8B32448406864
:101C800000F00C00082860D0E069022848D100204C
:101C900020490866FFF7F0F8054606E0FFF7ECF884
:101CA000401B022801D903203AE61948006800F0D9
:101CB00000700028F2D1206AB0F5803F07D11448A7
:101CC000406820F40030A168084311494860D4E915
:101CD000080108430E49496821F4741108430C496E
:101CE000486001200B490866FFF7C6F8054607E083
:101CF0003DE0FFF7C1F8401B022801D903200FE6A1
:101D00000348006800F000700028F2D02FE00000C7
:101D10000010024000004242800442420070004035
:101D2000002014490866FFF7A7F8054606E0FFF70C
:101D3000A3F8401B022801D90320F1E50E480068F2
:101D400000F000700028F2D111E0E069012800D114
:101D5000E6E50948466806F48031206A814204D1EC
:101D600006F47011606A814201D00120D8E500209C
:101D7000D6E500000000424200100240042808D1CD
:101D80004FF0E021096941F004014FF0E0221161B8
:101D900007E04FF0E021096921F004014FF0E02253
:101DA0001161704770B504462546681EB0F1807F0A
:101DB00001D301200FE0681E4FF0E02148610F21A0
:101DC0004FF0FF3006F03EFC00204FF0E02188612C
:101DD00007200861002070BD7047014600220023E3
:101DE00091F8392091F83A3042EA03007047000038
:101DF0002DE9F0470446206805682068C668206819
:101E000047694FF00008C14605F00F08B8F1000F10
:101E10000AD105F0200038B106F0200020B120469C
:101E200004F0F6F9BDE8F087B8F1000F6DD007F0C7
:101E3000010018B906F49070002866D005F0010082
:101E400030B106F4807018B1E06B40F00100E0633F
:101E500005F0040030B107F0010018B1E06B40F06C
:101E60000200E06305F0020030B107F0010018B194
:101E7000E06B40F00400E06305F0080030B107F0CB
:101E8000010018B1E06B40F00800E063E06B68B35C
:101E900005F0200028B106F0200010B1204604F023
:101EA000B7F920684069C0F38019E06B00F00800C2
:101EB00010B9B9F1000F22D0204604F089F920684A
:101EC000406900F04000B0B12068406920F0400057
:101ED00021684861606B50B11748616B4863606B63
:101EE000FEF750FD10B1606B416B88470CE0204657
:101EF000FFF772FF08E02046FFF76EFF04E0204680
:101F0000FFF76AFF0020E0638CE705F0800030B146
:101F100006F0800018B1204604F09EFA82E705F032
:101F2000400030B106F0400018B1204604F060F9DE
:101F300078E700BF76E70000BD61000810B50446F1
:101F40000CB9012010BDA06900B100E000BF94F8F9
:101F5000390028B9002084F83800204600F028F81D
:101F6000242084F839002068C06820F400502168DB
:101F7000C860204604F0A0F92068006920F4904071
:101F8000216808612068406920F02A0021684861C2
:101F90002068C06840F400502168C8600020E063F9
:101FA000202084F8390084F83A000020CAE70000B5
:101FB00010B586B0044625492068884244D100BF48
:101FC0002348806940F004002149886108468069FF
:101FD00000F00400019000BF00BF00BF0846806908
:101FE00040F4804088610846806900F48040019098
:101FF00000BF00BF00BF0846806940F00100886153
:102000000846806900F00100019000BF00BF48153C
:10201000029002200390012004900320059002A961
:102020000C48FEF783FD4FF480600290002003907F
:1020300002A90848FEF77AFD2520FEF76AFF032271
:1020400011462520FEF775FF06B010BD003801408F
:10205000001002400008014010B5034693F83A0012
:1020600020282FD101B10AB9012010BD00BF93F87B
:102070003800012801D10220F7E7012083F8380059
:1020800000BF99629A85DA850020D863222083F800
:102090003A0000BF002083F8380000BF1868C0680D
:1020A00040F480701C68E0601868406940F00100EE
:1020B0001C6860611868C06840F020001C68E0601F
:1020C0000020D2E70220D0E71D4A0168914236D1B4
:1020D0001C49098801F4004189BB1A49098801F4A7
:1020E000804171B1184909780A2903D00021154AA5
:1020F000118024E01349098841F40041114A1180FC
:102100001DE0114909780D2906D10E49098841F4CD
:1021100080410C4A118012E00B490978094A128863
:10212000C2F30D02094B995406490988491C054A16
:10213000118011460988C72901DD002111807047EF
:10214000003801401C0000201E000020B097002035
:10215000704700BFFEE730B50B46002100BF16E018
:102160000A24B4EB107F05D9302404EB107403F873
:10217000114005E0412404EB10740A3C03F81140BF
:10218000000100254C00641C1D554C1CE1B291421D
:10219000E6DB30BD70B5044600260E480588408851
:1021A00045430021084603F023F903F041FD00BF39
:1021B0000DE04FF48070084908614000486107480D
:1021C000046080204861086180000861761CAE428E
:1021D000EFD370BDB8980020001001400C0C0140F6
:1021E00010B5044649488471002C45D1F020474978
:1021F00008804FF4A07048800846808845F210514E
:10220000884210D14FF43050404908814FF4285093
:1022100048814FF42C5088814FF4F07008804FF4BF
:10222000487048801AE03948808841F66311884236
:102230000DD12C20354908812B2048812A20888106
:102240004FF4F07008804FF44870488006E02C206E
:102250002E4908812A2048812B2088812B4880889C
:1022600045F2103188424CD14FF4A07027490880C4
:102270004FF4F070488044E04FF4A0702349088088
:10228000F02048800846808845F21051884210D1DD
:102290004FF430501D4908814FF4285048814FF4C5
:1022A0002C5088814FF4487008804FF4F0704880BB
:1022B0001AE01648808841F6631188420DD12C201F
:1022C000124908812A2048812B2088814FF44870C8
:1022D00008804FF4F070488006E02C200B490881FC
:1022E0002A2048812B2088810848808845F21031B7
:1022F000884206D14FF4F070044908804FF4A07072
:102300004880002002F0A4FE10BD0000B898002014
:1023100030B503460C4615469B48808845F210515F
:10232000884250D19849488903F070FC4FF480707E
:10233000964908614000486118129549086080205C
:10234000924948610861800008618F494989491CA8
:1023500088B203F05BFC4FF480708C490861400048
:102360004861D8B28A49086080208849486108617C
:10237000800008618449888903F048FC4FF480702C
:10238000824908614000486120128149086080202C
:102390007E4948610861800008617B498989491C40
:1023A00088B203F033FC4FF4807078490861400034
:1023B0004861E0B27649086080207449486108614C
:1023C00080000861C3E07048808841F6631188424C
:1023D0007DD16D48807920B96B480088401EC01AB5
:1023E00083B26949488903F011FC4FF48070674952
:1023F00008614000486118126549086080206349FF
:10240000486108618000086140100861400048612F
:10241000D8B25F49086080205C494861086180004B
:10242000086140100861400048611812584908606E
:1024300080205649486108618000086140100861A9
:1024400040004861D8B25249086080204F49486135
:102450000861800008614C49888903F0D7FB4FF47C
:1024600080704A490861400048612012484908606C
:102470008020464948610861800008614010086179
:1024800040004861E0B24249086080203F4948610D
:102490000861800008614010086140004861201216
:1024A0003B49086080203949486108618000086123
:1024B0004010086140004861E0B235490860802062
:1024C0003249486108618000086140E0FFE72E4919
:1024D000488903F09BFB4FF480702C490861400051
:1024E000486118122A49086080202849486108611B
:1024F000800008614010086140004861D8B224495A
:1025000008608020214948610861800008611E49F7
:10251000888903F07BFB4FF480701C490861400000
:10252000486120121A4908608020184948610861F2
:10253000800008614010086140004861E0B2144921
:1025400008608020114948610861800008614FF4EB
:1025500080700E494861400048610B4800890C4971
:1025600008608020094948610861800008614010C6
:1025700008614000486106480560802048610861A4
:102580008000086130BD0000B898002000100140B4
:102590000C0C014000B585B000BFFE48806940F0DA
:1025A0000800FC4988610846806900F00800009036
:1025B00000BF00BF00BF0846806940F0100088617E
:1025C0000846806900F01000009000BF00BF4FF483
:1025D000F86001900120029003900320049001A96B
:1025E000ED48FEF7A3FA4FF6FF70019001A9EB4802
:1025F000FEF79CFA00BFEA49486820F0E06040F02E
:102600008060486000BF322006F044F801210020BD
:1026100003F016FB322006F03DF8D32003F0F6FA63
:1026200002F07CFCDF49888002F078FCDD4988807C
:1026300002F074FCDB498880084680884FF6FF7101
:1026400001EA0020D749888002F068FCD5498988D2
:102650000843D44988800846808849F2413188423D
:102660007DD0042003F0D2FA02F058FCCD498880D6
:1026700002F054FCCB49888002F050FCC9498880A4
:10268000084680884FF6FF7101EA0020C54988801E
:1026900002F044FCC34989880843C249888008463F
:1026A000808848F25251884203D147F28970BD496F
:1026B0008880BC48808847F289718842D0D0D42075
:1026C00003F0A4FA02F02AFCB649888002F026FC46
:1026D000B449888002F022FCB2498880084680888C
:1026E0004FF6FF7101EA0020AE49888002F016FC27
:1026F000AC4989880843AB4988800846808845F200
:102700001031884262D055214FF4704003F098FA9E
:10271000AA214FF2010003F093FA52214FF2020076
:1027200003F08EFA08214FF2030003F089FA012129
:102730004FF2040003F084FA4FF4454003F066FAC8
:1027400002F0ECFB97498880084680884FF6FF71BD
:1027500001EA0020934988804CF2015000E035E006
:1027600003F054FA02F0DAFB8E49898808438D4958
:102770008880052005F08EFF8A48808845F2105138
:10278000884223D0A12003F041FA02F0C7FB85491B
:10279000888002F0C3FB83498880084680884FF612
:1027A000FF7101EA00207F49888002F0B7FB7D4974
:1027B000898808437B4988800846808845F2617192
:1027C000884203D141F66310764988807548818834
:1027D00075A0FDF745FD7348808849F24131884274
:1027E0007ED1CF2003F012FA002003F0FDF9C120C2
:1027F00003F0FAF9302003F0F7F9ED2003F006FAC0
:10280000642003F0F1F9032003F0EEF9122003F045
:10281000EBF9812003F0E8F9E82003F0F7F98520CF
:1028200003F0E2F9102003F0DFF97A2003F0DCF97D
:10283000CB2003F0EBF9392003F0D6F92C2003F07C
:10284000D3F9002003F0D0F9342003F0CDF90220B1
:1028500003F0CAF9F72003F0D9F9202003F0C4F9F6
:10286000EA2003F0D3F9002003F0BEF9002003F0C2
:10287000BBF9C02003F0CAF91B2003F0B5F9C12051
:1028800003F0C4F9012003F0AFF9C52003F0BEF94D
:10289000302003F0A9F9302003F0A6F9C72003F097
:1028A000B5F9B72003F0A0F9362003F0AFF94820BE
:1028B00003F09AF93A2003F0A9F9552003F094F9AE
:1028C000B12003F0A3F9002003F08EF91A2003F0E1
:1028D0008BF9B62003F09AF90A2003F085F900E09D
:1028E000AAE0A22003F080F9F22003F08FF9002083
:1028F00003F07AF9262003F089F9012003F074F936
:10290000E02003F083F90F2003F06EF92A2003F092
:102910006BF9282003F068F9082003F065F90E2010
:1029200003F062F9082003F05FF9542003F05CF92A
:10293000A92003F059F9432003F056F90A2003F0C7
:1029400053F90F2003F050F9002003F04DF9002057
:1029500003F04AF9002003F047F9002003F044F99E
:10296000E12003F053F9002003F03EF9152003F0B5
:102970003BF9172003F038F9072003F035F911204F
:1029800003F032F9062003F02FF92B2003F02CF985
:10299000562011E00010024000100140000C0140E0
:1029A00000000140B8980020204C43442049443A9C
:1029B00025780D0A0000000003F016F93C2003F012
:1029C00013F9052003F010F9102003F00DF90F2082
:1029D00003F00AF93F2003F007F93F2003F004F960
:1029E0000F2003F001F92B2003F010F9002003F071
:1029F000FBF8002003F0F8F8012003F0F5F83F2081
:102A000003F0F2F82A2003F001F9002003F0ECF8BB
:102A1000002003F0E9F8002003F0E6F8EF2003F0CF
:102A2000E3F8112003F0F2F8782005F033FE2920B6
:102A300003F0ECF802F05FBAFE48808847F2897133
:102A400088427CD1112003F0E1F8782005F022FEC5
:102A5000362003F0DBF8002003F0C6F83A2003F03C
:102A6000D5F8052003F0C0F8B22003F0CFF80C2011
:102A700003F0BAF80C2003F0B7F8002003F0B4F824
:102A8000332003F0B1F8332003F0AEF8B72003F0A1
:102A9000BDF8352003F0A8F8BB2003F0B7F83220CA
:102AA00003F0A2F8C02003F0B1F80C2003F09CF86A
:102AB000C22003F0ABF8012003F096F8C32003F026
:102AC000A5F8102003F090F8C42003F09FF8202010
:102AD00003F08AF8C62003F099F80F2003F084F879
:102AE000D02003F093F8A42003F07EF8A12003F097
:102AF0007BF8E02003F08AF8D02003F075F800207E
:102B000003F072F8022003F06FF8072003F06CF86E
:102B10000A2003F069F8282003F066F8322003F059
:102B200063F8442003F060F8422003F05DF80620CB
:102B300003F05AF80E2003F057F8122000E056E098
:102B400003F052F8142003F04FF8172003F04CF86C
:102B5000E12003F05BF8D02003F046F8002003F0FA
:102B600043F8022003F040F8072003F03DF80A2064
:102B700003F03AF8282003F037F8312003F034F856
:102B8000542003F031F8472003F02EF80E2003F014
:102B90002BF81C2003F028F8172003F025F81B2041
:102BA00003F022F81E2003F01FF82A2003F02EF86D
:102BB000002003F019F8002003F016F8002003F0BD
:102BC00013F8EF2003F010F82B2003F01FF800207B
:102BD00003F00AF8002003F007F8012003F004F8DE
:102BE0003F2003F001F8292003F010F822E7914874
:102BF000808845F21031884240F07C87ED2003F058
:102C000005F8012002F0F0FFFE2002F0EDFFEE20BB
:102C100002F0FCFFDE2002F0E7FF212002F0E4FFDB
:102C2000F12002F0F3FF012002F0DEFFDF2002F0CE
:102C3000EDFF102002F0D8FFC42002F0E7FF8F2044
:102C400002F0D2FFC62002F0E1FF002002F0CCFF2C
:102C5000E22002F0C9FFE22002F0C6FFE22002F00B
:102C6000C3FFBF2002F0D2FFAA2002F0BDFFB020B8
:102C700002F0CCFF0D2002F0B7FF002002F0B4FFFD
:102C80000D2002F0B1FF002002F0AEFF112002F093
:102C9000ABFF002002F0A8FF192002F0A5FF0020E2
:102CA00002F0A2FF212002F09FFF002002F09CFF13
:102CB0002D2002F099FF002002F096FF3D2002F047
:102CC00093FF002002F090FF5D2002F08DFF0020B6
:102CD00002F08AFF5D2002F087FF002002F084FFEF
:102CE000B12002F093FF802002F07EFF002002F06E
:102CF0007BFF8B2002F078FF002002F075FF96200A
:102D000002F072FF002002F06FFFB22002F07EFF9F
:102D1000002002F069FF002002F066FF022002F0AE
:102D200063FF002002F060FF032002F05DFF00203F
:102D300002F05AFFB32002F069FF002002F054FFB6
:102D4000002002F051FF002002F04EFF002002F0B0
:102D50004BFF002002F048FF002002F045FF00205A
:102D600002F042FF002002F03FFF002002F03CFF93
:102D7000002002F039FF002002F036FF002002F0B0
:102D800033FF002002F030FF002002F02DFF002072
:102D900002F02AFF002002F027FF002002F024FFAB
:102DA000002002F021FF002002F01EFF002002F0B0
:102DB0001BFF002002F018FF002002F015FF00208A
:102DC00002F012FF002002F00FFFB42002F01EFFFD
:102DD0008B2002F009FF002002F006FF962002F08F
:102DE00003FF002002F000FFA12002F0FDFE002002
:102DF00002F0FAFEB52002F009FF022002F0F4FE14
:102E0000002002F0F1FE032002F0EEFE002002F0AE
:102E1000EBFE042002F0E8FE002002F0E5FEB62002
:102E200002F0F4FE002002F0DFFE002002F0DCFEE3
:102E3000B72001E0B898002002F0E8FE002002F080
:102E4000D3FE002002F0D0FE3F2002F0CDFE002095
:102E500002F0CAFE5E2002F0C7FE002002F0C4FEAF
:102E6000642002F0C1FE002002F0BEFE8C2002F0C1
:102E7000BBFE002002F0B8FEAC2002F0B5FE002040
:102E800002F0B2FEDC2002F0AFFE002002F0ACFE49
:102E9000702002F0A9FE002002F0A6FE902002F0B1
:102EA000A3FE002002F0A0FEEB2002F09DFE002019
:102EB00002F09AFEDC2002F097FE002002F094FE61
:102EC000B82002F0A3FE002002F08EFE002002F0E7
:102ED0008BFE002002F088FE002002F085FE00201C
:102EE00002F082FE002002F07FFE002002F07CFE55
:102EF000002002F079FEBA2002F088FE242002F0C1
:102F000073FE002002F070FE002002F06DFE002033
:102F100002F06AFEC12002F079FE202002F064FE79
:102F2000002002F061FE542002F05EFE002002F05C
:102F30005BFEFF2002F058FE002002F055FEC2208A
:102F400002F064FE0A2002F04FFE002002F04CFE68
:102F5000042002F049FE002002F046FEC32002F0E9
:102F600055FE3C2002F040FE002002F03DFE3A20DB
:102F700002F03AFE002002F037FE392002F034FE63
:102F8000002002F031FE372002F02EFE002002F079
:102F90002BFE3C2002F028FE002002F025FE362009
:102FA00002F022FE002002F01FFE322002F01CFE82
:102FB000002002F019FE2F2002F016FE002002F081
:102FC00013FE2C2002F010FE002002F00DFE29203E
:102FD00002F00AFE002002F007FE262002F004FEA6
:102FE000002002F001FE242002F0FEFD002002F08D
:102FF000FBFD242002F0F8FD002002F0F5FD232067
:1030000002F0F2FD002002F0EFFD3C2002F0ECFDAA
:10301000002002F0E9FD362002F0E6FD002002F07B
:10302000E3FD322002F0E0FD002002F0DDFD2F2064
:1030300002F0DAFD002002F0D7FD2C2002F0D4FDD2
:10304000002002F0D1FD292002F0CEFD002002F088
:10305000CBFD262002F0C8FD002002F0C5FD242093
:1030600002F0C2FD002002F0BFFD242002F0BCFDF2
:10307000002002F0B9FD232002F0B6FD002002F08E
:10308000B3FDC42002F0C2FD622002F0ADFD0020BD
:1030900002F0AAFD052002F0A7FD002002F0A4FD29
:1030A000842002F0A1FD002002F09EFDF02002F03D
:1030B0009BFD002002F098FD182002F095FD0020F5
:1030C00002F092FDA42002F08FFD002002F08CFDA2
:1030D000182002F089FD002002F086FD502002F049
:1030E00083FD002002F080FD0C2002F07DFD002019
:1030F00002F07AFD172002F077FD002002F074FD47
:10310000952002F071FD002002F06EFDF32002F028
:103110006BFD002002F068FDE62002F065FD002056
:1031200002F062FDC52002F071FD322002F05CFD6C
:10313000002002F059FD442002F056FD002002F06C
:1031400053FD652002F050FD002002F04DFD762079
:1031500002F04AFD002002F047FD882002F044FD05
:10316000002002F041FDC62002F050FD202002F0B8
:103170003BFD002002F038FD172002F035FD002055
:1031800002F032FD012002F02FFD002002F02CFDA4
:10319000C72002F03BFD002002F026FD002002F0D7
:1031A00023FD002002F020FD002002F01DFDC820BC
:1031B00002F02CFD002002F017FD002002F014FDAB
:1031C000002002F011FD002002F00EFDC92002F0E7
:1031D0001DFD002002F008FD002002F005FD00208A
:1031E00002F002FD002002F0FFFC002002F0FCFCD7
:1031F000002002F0F9FC002002F0F6FC002002F0B2
:10320000F3FC002002F0F0FC002002F0EDFC0020B6
:1032100002F0EAFC002002F0E7FC002002F0E4FCEF
:10322000002002F0E1FC002002F0DEFC002002F0B1
:10323000DBFCE02002F0EAFC162002F0D5FC0020C6
:1032400002F0D2FC1C2002F0CFFC002002F0CCFCEB
:10325000212002F0C9FC002002F0C6FC362002F05A
:10326000C3FC002002F0C0FC462002F0BDFC0020A0
:1032700002F0BAFC522002F0B7FC002002F0B4FCCD
:10328000642002F0B1FC002002F0AEFC7A2002F0D3
:10329000ABFC002002F0A8FC8B2002F0A5FC002073
:1032A00002F0A2FC992002F09FFC002002F09CFC9E
:1032B000A82002F099FC002002F096FCB92002F050
:1032C00093FC002002F090FCC42002F08DFC002052
:1032D00002F08AFCCA2002F087FC002002F084FC85
:1032E000D22002F081FC002002F07EFCD92002F006
:1032F0007BFC002002F078FCE02002F075FC00204E
:1033000002F072FCF32002F06FFC002002F06CFC73
:10331000E12002F07BFC162002F066FC002002F0A7
:1033200063FC1C2002F060FC002002F05DFC222007
:1033300002F05AFC002002F057FC362002F054FC48
:10334000002002F051FC452002F04EFC002002F06B
:103350004BFC522002F048FC002002F045FC6420A7
:1033600002F042FC002002F03FFC7A2002F03CFC1C
:10337000002002F039FC8B2002F036FC002002F025
:1033800033FC992002F030FC002002F02DFCA82034
:1033900002F02AFC002002F027FCB92002F024FCF5
:1033A000002002F021FCC42002F01EFC002002F0EC
:1033B0001BFCCA2002F018FC002002F015FCD220F1
:1033C00002F012FC002002F00FFCD82002F00CFCEE
:1033D000002002F009FCE02002F006FC002002F0D0
:1033E00003FCF32002F000FC002002F0FDFBE220D1
:1033F00002F00CFC052002F0F7FB002002F0F4FBC9
:103400000B2002F0F1FB002002F0EEFB1B2002F08B
:10341000EBFB002002F0E8FB342002F0E5FB00208B
:1034200002F0E2FB442002F0DFFB002002F0DCFBB4
:103430004F2002F0D9FB002002F0D6FB612002F001
:10344000D3FB002002F0D0FB792002F0CDFB00205E
:1034500002F0CAFB882002F0C7FB002002F0C4FB88
:10346000972002F0C1FB002002F0BEFBA62002F074
:10347000BBFB002002F0B8FBB72002F0B5FB002038
:1034800002F0B2FBC22002F0AFFB002002F0ACFB66
:10349000C72002F0A9FB002002F0A6FBD12002F019
:1034A000A3FB002002F0A0FBD62002F09DFB002031
:1034B00002F09AFBDD2002F097FB002002F094FB63
:1034C000F32002F091FB002002F08EFBE32002F0DB
:1034D0009DFB052002F088FB002002F085FB0A20FE
:1034E00002F082FB002002F07FFB1C2002F07CFB3C
:1034F000002002F079FB332002F076FB002002F07E
:1035000073FB442002F070FB002002F06DFB5020A2
:1035100002F06AFB002002F067FB622002F064FB0D
:10352000002002F061FB782002F05EFB002002F038
:103530005BFB882002F058FB002002F055FB97202F
:1035400002F052FB002002F04FFBA62002F04CFBE1
:10355000002002F049FBB72002F046FB002002F0F9
:1035600043FBC22002F040FB002002F03DFBC720DD
:1035700002F03AFB002002F037FBD12002F034FBCE
:10358000002002F031FBD52002F02EFB002002F0DB
:103590002BFBDD2002F028FB002002F025FBF320AE
:1035A00002F022FB002002F01FFBE42002F02EFBC1
:1035B000012002F019FB002002F016FB012002F0AE
:1035C00013FB002002F010FB022002F00DFB002094
:1035D00002F00AFB2A2002F007FB002002F004FBA5
:1035E0003C2002F001FB002002F0FEFA4B2002F02A
:1035F000FBFA002002F0F8FA5D2002F0F5FA002054
:1036000002F0F2FA742002F0EFFA002002F0ECFA75
:10361000842002F0E9FA002002F0E6FA932002F09A
:10362000E3FA002002F0E0FAA22002F0DDFA002026
:1036300002F0DAFAB32002F0D7FA002002F0D4FA4E
:10364000BE2002F0D1FA002002F0CEFAC42002F02F
:10365000CBFA002002F0C8FACD2002F0C5FA002013
:1036600002F0C2FAD32002F0BFFA002002F0BCFA46
:10367000DD2002F0B9FA002002F0B6FAF32002F0E1
:10368000B3FA002002F0B0FAE52002F0BFFA002001
:1036900002F0AAFA002002F0A7FA002002F0A4FA31
:1036A000002002F0A1FA022002F09EFA002002F0AF
:1036B0009BFA292002F098FA002002F095FA3C20AB
:1036C00002F092FA002002F08FFA4B2002F08CFAFE
:1036D000002002F089FA5D2002F086FA002002F054
:1036E00083FA742002F080FA002002F07DFA842030
:1036F00002F07AFA002002F077FA932002F074FACE
:10370000002002F071FAA22002F06EFA002002F00E
:103710006BFAB32002F068FA002002F065FABE20CE
:1037200002F062FA002002F05FFAC42002F05CFAB4
:10373000002002F059FACD2002F056FA002002F0E3
:1037400053FAD32002F050FA002002F04DFADC20A8
:1037500002F04AFA002002F047FAF32002F044FA9D
:10376000002002F041FAE62002F050FA112002F0A7
:103770003BFA002002F038FA342002F035FA00203B
:1037800002F032FA562002F02FFA002002F02CFA52
:10379000762002F029FA002002F026FA772002F0C3
:1037A00023FA002002F020FA662002F01DFA002021
:1037B00002F01AFA882002F017FA002002F014FA38
:1037C000992002F011FA002002F00EFABB2002F05C
:1037D0000BFA002002F008FA992002F005FA002006
:1037E00002F002FA662002F0FFF9002002F0FCF974
:1037F000552002F0F9F9002002F0F6F9552002F008
:10380000F3F9002002F0F0F9452002F0EDF9002074
:1038100002F0EAF9432002F0E7F9002002F0E4F9AF
:10382000442002F0E1F9002002F0DEF9E72002F086
:10383000EDF9322002F0D8F9002002F0D5F9552038
:1038400002F0D2F9002002F0CFF9762002F0CCF994
:10385000002002F0C9F9662002F0C6F9002002F04B
:10386000C3F9672002F0C0F9002002F0BDF967201B
:1038700002F0BAF9002002F0B7F9872002F0B4F99B
:10388000002002F0B1F9992002F0AEF9002002F018
:10389000ABF9BB2002F0A8F9002002F0A5F99920AD
:1038A00002F0A2F9002002F09FF9772002F09CF9C3
:1038B000002002F099F9442002F096F9002002F06D
:1038C00093F9562002F090F9002002F08DF92320A0
:1038D00002F08AF9002002F087F9332002F084F91F
:1038E000002002F081F9452002F07EF9002002F06C
:1038F0007BF9E82002F08AF9002002F075F9002037
:1039000002F072F9992002F06FF9002002F06CF9D0
:10391000872002F069F9002002F066F9882002F0A1
:1039200063F9002002F060F9772002F05DF90020D1
:1039300002F05AF9662002F057F9002002F054F91B
:10394000882002F051F9002002F04EF9AA2002F07E
:103950004BF9002002F048F9BB2002F045F90020A5
:1039600002F042F9992002F03FF9002002F03CF900
:10397000662002F039F9002002F036F9552002F0F5
:1039800033F9002002F030F9552002F02DF9002023
:1039900002F02AF9442002F027F9002002F024F96D
:1039A000442002F021F9002002F01EF9552002F017
:1039B0001BF9002002F018F9E92002F027F9AA20EB
:1039C00002F012F9002002F00FF9002002F00CF9C9
:1039D000002002F009F9002002F018F9AA2002F0F4
:1039E00003F9CF2002F012F9002002F0FDF80020C8
:1039F00002F0FAF8002002F0F7F8002002F0F4F8E4
:103A0000002002F0F1F8002002F0EEF8002002F0B1
:103A1000EBF8002002F0E8F8002002F0E5F80020C2
:103A200002F0E2F8002002F0DFF8002002F0DCF8FB
:103A3000002002F0D9F8002002F0D6F8002002F0B1
:103A4000D3F8002002F0D0F8002002F0CDF8F020EA
:103A500002F0DCF8002002F0C7F8502002F0C4F8B1
:103A6000002002F0C1F8002002F0BEF8002002F0B1
:103A7000BBF8F32002F0CAF8002002F0B5F8F920F4
:103A800002F0C4F8062002F0AFF8102002F0ACF803
:103A9000292002F0A9F8002002F0A6F83A2002F04E
:103AA000B5F8552002F0A0F8112002F0AFF864201C
:103AB00004F0F0FD292002F0A9F8352002F0A6F864
:103AC000002002F091F8512002F0A0F8FF2002F04F
:103AD0008BF8532002F09AF82C2002F085F855203C
:103AE00002F094F8822002F07FF82C2002F08EF889
:103AF00001F001BAFE48808845F2105188427DD11C
:103B000055214FF4704002F09BF8AA214FF20100BA
:103B100002F096F852214FF2020002F091F80821CB
:103B20004FF2030002F08CF801214FF2040002F082
:103B300087F80D214FF4304002F082F80D214BF24E
:103B4000010002F07DF80D214BF2020002F078F83E
:103B500034214FF4364002F073F834214BF2016007
:103B600002F06EF834214BF2026002F069F80D2188
:103B70004FF4314002F064F80D214BF2011002F0D5
:103B80005FF80D214BF2021002F05AF834214FF485
:103B9000374002F055F834214BF2017002F050F832
:103BA00034214BF2027002F04BF800214FF4324006
:103BB00002F046F800214BF2012002F041F800210A
:103BC0004BF2022002F03CF824214FF4384002F07E
:103BD00037F824214BF6010002F032F824214BF68D
:103BE000020002F02DF801214FF43F4002F028F8C6
:103BF0000F214FF4334002F023F800E0FDE30F21E2
:103C00004BF2013002F01CF80F214BF2023002F0AF
:103C100017F834214FF4394002F012F834214BF6F2
:103C2000011002F00DF834214BF6021002F008F8F2
:103C300008214FF4354002F003F808214BF20150FF
:103C400001F0FEFF08214BF2025001F0F9FF0321C1
:103C50004FF4424001F0F4FF24214FF43A4001F0C8
:103C6000EFFF24214BF6012001F0EAFF24214BF65F
:103C7000022001F0E5FF00214FF43C4001F0E0FF9D
:103C800078214BF6014001F0DBFF00214BF60240AA
:103C900001F0D6FF00214FF43D4001F0D1FF782123
:103CA0004BF6015001F0CCFF00214BF6025001F021
:103CB000C7FF00214FF43E4001F0C2FF64214BF6E4
:103CC000016001F0BDFF00214FF4514001F0B8FF49
:103CD00033214DF2011001F0B3FF00214DF202102B
:103CE00001F0AEFF34214DF2031001F0A9FF0021D5
:103CF0004DF2041001F0A4FF3A214DF2051001F03D
:103D00009FFF00214DF2061001F09AFF4A214DF26B
:103D1000071001F095FF00214DF2081001F090FF0F
:103D20005C214DF2091001F08BFF00214DF20A10C9
:103D300001F086FF81214DF20B1001F081FF00217F
:103D40004DF20C1001F07CFFA6214DF20D1001F098
:103D500077FF00214DF20E1001F072FFE5214DF2C8
:103D60000F1001F06DFF01214DF2101001F068FFFE
:103D700013214DF2111001F063FF01214DF21210D9
:103D800001F05EFF54214DF2131001F059FF0121A3
:103D90004DF2141001F054FF82214DF2151001F084
:103DA0004FFF01214DF2161001F04AFFCA214DF2DA
:103DB000171001F045FF02214DF2181001F040FFED
:103DC00000214DF2191001F03BFF02214DF21A10B3
:103DD00001F036FF01214DF21B1001F031FF0221ED
:103DE0004DF21C1001F02CFF34214DF21D1001F09A
:103DF00027FF02214DF21E1001F022FF67214DF234
:103E00001F1001F01DFF02214DF2201001F018FFDC
:103E100084214DF2211001F013FF02214DF22210F6
:103E200001F00EFFA4214DF2231001F009FF022141
:103E30004DF2241001F004FFB7214DF2251001F0DE
:103E4000FFFE02214DF2261001F0FAFECF214DF2C5
:103E5000271001F0F5FE02214DF2281001F0F0FECE
:103E6000DE214DF2291001F0EBFE02214DF22A1065
:103E700001F0E6FEF2214DF22B1001F0E1FE0221ED
:103E80004DF22C1001F0DCFEFE214DF22D1001F060
:103E9000D7FE03214DF22E1001F0D2FE10214DF27B
:103EA0002F1001F0CDFE03214DF2301001F0C8FEBD
:103EB00033214DF2311001F0C3FE03214DF23210D7
:103EC00001F0BEFE6D214DF2331001F0B9FE00216C
:103ED0004FF4524001F0B4FE33214DF2012001F0C5
:103EE000AFFE00214DF2022001F0AAFE342101E0D4
:103EF000B89800204DF2032001F0A2FE00214DF2FF
:103F0000042001F09DFE3A214DF2052001F098FEBB
:103F100000214DF2062001F093FE4A214DF20720C8
:103F200001F08EFE00214DF2082001F089FE5C2197
:103F30004DF2092001F084FE00214DF20A2001F02B
:103F40007FFE81214DF20B2001F07AFE00214DF21F
:103F50000C2001F075FEA6214DF20D2001F070FE3F
:103F600000214DF20E2001F06BFEE5214DF20F20F5
:103F700001F066FE01214DF2102001F061FE1321D7
:103F80004DF2112001F05CFE01214DF2122001F0F2
:103F900057FE54214DF2132001F052FE01214DF243
:103FA000142001F04DFE82214DF2152001F048FE53
:103FB00001214DF2162001F043FECA214DF21720D7
:103FC00001F03EFE02214DF2182001F039FE0021E1
:103FD0004DF2192001F034FE02214DF21A2001F0B9
:103FE0002FFE01214DF21B2001F02AFE02214DF28D
:103FF0001C2001F025FE34214DF21D2001F020FE91
:1040000002214DF21E2001F01BFE67214DF21F2000
:1040100001F016FE02214DF2202001F011FE842154
:104020004DF2212001F00CFE02214DF2222001F080
:1040300007FEA4214DF2232001F002FE02214DF2E1
:10404000242001F0FDFDB7214DF2252001F0F8FDFF
:1040500002214DF2262001F0F3FDCF214DF2272061
:1040600001F0EEFD02214DF2282001F0E9FDDE21F4
:104070004DF2292001F0E4FD02214DF22A2001F049
:10408000DFFDF2214DF22B2001F0DAFD02214DF28D
:104090002C2001F0D5FDFE214DF22D2001F0D0FDA8
:1040A00003214DF22E2001F0CBFD10214DF22F20E7
:1040B00001F0C6FD03214DF2302001F0C1FD332196
:1040C0004DF2312001F0BCFD03214DF2322001F010
:1040D000B7FD6D214DF2332001F0B2FD00214FF408
:1040E000534001F0ADFD33214DF2013001F0A8FD48
:1040F00000214DF2023001F0A3FD34214DF20330D6
:1041000001F09EFD00214DF2043001F099FD3A21AD
:104110004DF2053001F094FD00214DF2063001F022
:104120008FFD4A214DF2073001F08AFD00214DF24A
:10413000083001F085FD5C214DF2093001F080FD71
:1041400000214DF20A3001F07BFD81214DF20B3050
:1041500001F076FD00214DF20C3001F071FDA62139
:104160004DF20D3001F06CFD00214DF20E3001F0EA
:1041700067FDE5214DF20F3001F062FD01214DF2A6
:10418000103001F05DFD13214DF2113001F058FDAA
:1041900001214DF2123001F053FD54214DF2133044
:1041A00001F04EFD01214DF2143001F049FD822154
:1041B0004DF2153001F044FD01214DF2163001F0B1
:1041C0003FFDCA214DF2173001F03AFD02214DF2B8
:1041D000183001F035FD00214DF2193001F030FDAD
:1041E00002214DF21A3001F02BFD01214DF21B305E
:1041F00001F026FD02214DF21C3001F021FD342199
:104200004DF21D3001F01CFD02214DF21E3001F077
:1042100017FD67214DF21F3001F012FD02214DF212
:10422000203001F00DFD84214DF2213001F008FD18
:1042300002214DF2223001F003FDA4214DF2233082
:1042400001F0FEFC02214DF2243001F0F9FCB7210F
:104250004DF2253001F0F4FC02214DF2263001F040
:10426000EFFCCF214DF2273001F0EAFC02214DF2A4
:10427000283001F0E5FCDE214DF2293001F0E0FCB0
:1042800002214DF22A3001F0DBFCF2214DF22B30FD
:1042900001F0D6FC02214DF22C3001F0D1FCFE21C0
:1042A0004DF22D3001F0CCFC03214DF22E3001F007
:1042B000C7FC10214DF22F3001F0C2FC03214DF25A
:1042C000303001F0BDFC33214DF2313001F0B8FC4B
:1042D00003214DF2323001F0B3FC6D214DF2333049
:1042E00001F0AEFC00214FF4544001F0A9FC332151
:1042F0004DF2014001F0A4FC00214DF2024001F01A
:104300009FFC34214DF2034001F09AFC00214DF254
:10431000044001F095FC3A214DF2054001F090FC7B
:1043200000214DF2064001F08BFC4A214DF207407E
:1043300001F086FC00214DF2084001F081FC5C2177
:104340004DF2094001F07CFC00214DF20A4001F0E1
:1043500077FC81214DF20B4001F072FC00214DF2FF
:104360000C4001F06DFCA6214DF20D4001F068FCFF
:1043700000214DF20E4001F063FCE5214DF20F40AB
:1043800001F05EFC01214DF2104001F059FC1321B7
:104390004DF2114001F054FC01214DF2124001F0A8
:1043A0004FFC54214DF2134001F04AFC01214DF223
:1043B000144001F045FC82214DF2154001F040FC13
:1043C00001214DF2164001F03BFCCA214DF217408D
:1043D00001F036FC02214DF2184001F031FC0021C1
:1043E0004DF2194001F02CFC02214DF21A4001F06F
:1043F00027FC01214DF21B4000E005E301F020FC09
:1044000002214DF21C4001F01BFC34214DF21D40F5
:1044100001F016FC02214DF21E4001F011FC672153
:104420004DF21F4001F00CFC02214DF2204001F042
:1044300007FC84214DF2214001F002FC02214DF2E3
:10444000224001F0FDFBA4214DF2234001F0F8FBD6
:1044500002214DF2244001F0F3FBB7214DF225403B
:1044600001F0EEFB02214DF2264001F0E9FBCF21E5
:104470004DF2274001F0E4FB02214DF2284001F00B
:10448000DFFBDE214DF2294001F0DAFB02214DF283
:104490002A4001F0D5FBF2214DF22B4001F0D0FB78
:1044A00002214DF22C4001F0CBFBFE214DF22D40BC
:1044B00001F0C6FB03214DF22E4001F0C1FB10219B
:1044C0004DF22F4001F0BCFB03214DF2304001F0D2
:1044D000B7FB33214DF2314001F0B2FB03214DF225
:1044E000324001F0ADFB6D214DF2334001F0A8FBED
:1044F00000214FF4554001F0A3FB33214DF2015050
:1045000001F09EFB00214DF2025001F099FB342195
:104510004DF2035001F094FB00214DF2045001F0E4
:104520008FFB3A214DF2055001F08AFB00214DF23C
:10453000065001F085FB4A214DF2075001F080FB47
:1045400000214DF2085001F07BFB5C214DF2095037
:1045500001F076FB00214DF20A5001F071FB812140
:104560004DF20B5001F06CFB00214DF20C5001F0AC
:1045700067FBA6214DF20D5001F062FB00214DF2C8
:104580000E5001F05DFBE5214DF20F5001F058FB9C
:1045900001214DF2105001F053FB13214DF2115047
:1045A00001F04EFB01214DF2125001F049FB542164
:1045B0004DF2135001F044FB01214DF2145001F073
:1045C0003FFB82214DF2155001F03AFB01214DF2E3
:1045D000165001F035FBCA214DF2175001F030FBA7
:1045E00002214DF2185001F02BFB00214DF2195021
:1045F00001F026FB02214DF21A5001F021FB0121AE
:104600004DF21B5001F01CFB02214DF21C5001F039
:1046100017FB34214DF21D5001F012FB02214DF227
:104620001E5001F00DFB67214DF21F5001F008FBF9
:1046300002214DF2205001F003FB84214DF2215064
:1046400001F0FEFA02214DF2225001F0F9FAA42104
:104650004DF2235001F0F4FA02214DF2245001F002
:10466000EFFAB7214DF2255001F0EAFA02214DF29E
:10467000265001F0E5FACF214DF2275001F0E0FA83
:1046800002214DF2285001F0DBFADE214DF22950D3
:1046900001F0D6FA02214DF22A5001F0D1FAF221AE
:1046A0004DF22B5001F0CCFA02214DF22C5001F0CA
:1046B000C7FAFE214DF22D5001F0C2FA03214DF24E
:1046C0002E5001F0BDFA10214DF22F5001F0B8FA32
:1046D00003214DF2305001F0B3FA33214DF2315045
:1046E00001F0AEFA03214DF2325001F0A9FA6D212A
:1046F0004DF2335001F0A4FA00214FF4564001F07E
:104700009FFA33214DF2016001F09AFA00214DF237
:10471000026001F095FA34214DF2036001F090FA45
:1047200000214DF2046001F08BFA3A214DF2056050
:1047300001F086FA00214DF2066001F081FA4A216B
:104740004DF2076001F07CFA00214DF2086001F0A3
:1047500077FA5C214DF2096001F072FA00214DF206
:104760000A6001F06DFA81214DF20B6001F068FAE8
:1047700000214DF20C6001F063FAA6214DF20D60AC
:1047800001F05EFA00214DF20E6001F059FAE521C8
:104790004DF20F6001F054FA01214DF2106001F06A
:1047A0004FFA13214DF2116001F04AFA01214DF246
:1047B000126001F045FA54214DF2136001F040FA05
:1047C00001214DF2146001F03BFA82214DF2156097
:1047D00001F036FA01214DF2166001F031FACA21DA
:1047E0004DF2176001F02CFA02214DF2186001F031
:1047F00027FA00214DF2196001F022FA02214DF250
:104800001A6001F01DFA01214DF21B6001F018FA47
:1048100002214DF21C6001F013FA34214DF21D60AB
:1048200001F00EFA02214DF21E6001F009FA672133
:104830004DF21F6001F004FA02214DF2206001F0F8
:10484000FFF984214DF2216001F0FAF902214DF2C5
:10485000226001F0F5F9A4214DF2236001F0F0F996
:1048600002214DF2246001F0EBF9B7214DF22560F1
:1048700001F0E6F902214DF2266001F0E1F9CF21C5
:104880004DF2276001F0DCF902214DF2286001F0C1
:10489000D7F9DE214DF2296001F0D2F902214DF263
:1048A0002A6001F0CDF9F2214DF22B6001F0C8F938
:1048B00002214DF22C6001F0C3F9FE214DF22D6072
:1048C00001F0BEF903214DF22E6001F0B9F910217B
:1048D0004DF22F6001F0B4F903214DF2306001F088
:1048E000AFF933214DF2316001F0AAF903214DF205
:1048F000326001F0A5F96D214DF2336001F0A0F9AD
:1049000055214FF4704001F09BF9AA214FF20100AC
:1049100001F096F952214FF2020001F091F90821BD
:104920004FF2030001F08CF900214FF2040001F076
:1049300087F9CC214FF4314001F082F900214BF28C
:10494000011001F07DF905214FF4364001F078F9AE
:1049500070214FF4374001F073F970214BF2017070
:1049600001F06EF901214FF4384001F069F903219B
:104970004BF6010001F064F903214BF6020001F04F
:104980005FF903214BF6030001F05AF902214FF4BD
:104990003C4001F055F900214BF6014001F050F97F
:1049A00000214BF6024001F04BF9D0214FF4494071
:1049B00001F046F902214CF6011001F041F95021B5
:1049C0004CF6021001F03CF950214CF6031001F0B6
:1049D00037F950214CF6041001F032F900214FF460
:1049E000545001F02DF955214FF4685001F028F989
:1049F0004FF4885001F00AF9782003F057FE4FF485
:104A0000245001F003F976E2FE48808841F66311F4
:104A10008842F8D1E22001F0F9F84FF48070FA49A9
:104A20000861400048611D20F84908608020F6496F
:104A300048610861800008614010086140004861D9
:104A40000220F24908608020EF4948610861800037
:104A5000086140100861400048610420EB4908608B
:104A60008020E9494861086180000861642003F002
:104A70001DFEE02001F0CAF84FF48070E2490861A1
:104A8000400048610120E14908608020DE4948611A
:104A90000861800008610A2003F0FCFDE02001F0BD
:104AA000B5F84FF48070D849086140004861032090
:104AB000D64908608020D4494861086180000861B7
:104AC0000C2003F0E7FD012001F0A0F80A2003F01C
:104AD000E1FDE62001F09AF84FF48070CA490861C0
:104AE000400048612F20C94908608020C6494861BC
:104AF0000861800008614010086140004861FF20A3
:104B0000C24908608020C04948610861800008618E
:104B10004010086140004861FF20BC4908608020C7
:104B2000B9494861086180000861B02001F06EF861
:104B30004FF48070B4490861400048612020B349B7
:104B400008608020B0494861086180000861401019
:104B50000861400048610020AC4908608020AA49F3
:104B600048610861800008614010086140004861A8
:104B70000320A64908608020A3494861086180009D
:104B80000861401008614000486140F21F309F49B1
:104B9000086080209C4948610861800008614010DD
:104BA00008614000486101209849086080209649CA
:104BB0004861086180000861401008614000486158
:104BC00040F2DF109149086080208F4948610861F8
:104BD00080000861401008614000486100208B4956
:104BE0000860802088494861086180000861B4201D
:104BF00001F00CF84FF4807083490861400048616F
:104C000004208249086080207F4948610861800053
:104C10000861401008614000486140F21F407B4934
:104C20000860802078494861086180000861401070
:104C30000861400048610020744908608020724982
:104C400048610861800008614010086140004861C7
:104C50002E206E49086080206B4948610861800001
:104C60000861401008614000486100206749086001
:104C70008020654948610861800008614010086132
:104C80004000486100206149086080205E49486119
:104C90000861800008614010086140004861002000
:104CA0005A490860802058494861086180000861BD
:104CB000401008614000486100205449086080208D
:104CC00051494861086180000861B62000F09EFFEC
:104CD0004FF480704C4908614000486102204B4904
:104CE00008608020484948610861800008614010E0
:104CF0000861400048614FF4037044490860802017
:104D00004149486108618000086140100861400025
:104D1000486100203D49086080203B4948610861A6
:104D20008000086140100861400048611720374941
:104D300008608020344948610861800008614010A3
:104D400008614000486115203049086080202E49E4
:104D500048610861800008614010086140004861B6
:104D600000202A49086080202749486108618000A6
:104D70000861401008614000486100202349086034
:104D8000802021494861086180000861F02000F01E
:104D90003DFF4FF480701C490861400048610320CA
:104DA0001A4908608020184948610861800008613C
:104DB000292000F02BFFD02000F028FF4FF4807056
:104DC00011490861400048610020104908608020B6
:104DD0000D494861086180000861BE2000F016FF9F
:104DE0004FF4807008490861400048610520074978
:104DF0000860802004494861086180000861401013
:104E0000086105E0B8980020001001400C0C01403A
:104E100040004861FE203E49086080203D494861CD
:104E2000086180000861401008614000486101206D
:104E3000374908608020374948610861800008616F
:104E4000401008614000486100203149086080201E
:104E500030494861086180000861401008614000E5
:104E6000486100202A49086080202A494861086179
:104E7000800008614010086140004861002024491A
:104E80000860802023494861086180000861B820DB
:104E900000F0BCFE4FF480701E490861400048617C
:104EA00003201B49086080201A494861086180007E
:104EB0000861401008614000486101201449086001
:104EC000802014494861086180000861BA2000F020
:104ED0009DFE4FF480700F49086140004861012039
:104EE0000B49086080200B49486108618000086117
:104EF000642000F043F80020FDF772F90120064914
:104F000008604FF6FF70FDF745F905B000BD0000E1
:104F10000C0C014000100140A801224200B54FF0E6
:104F2000883014490860091D0860002011490C31BF
:104F300008608815104908614000486140204861B8
:104F4000022003F061FD0B480830006883B2402066
:104F500009490861C00008614FF033300549086015
:104F6000091D08604FF6FF7002490C3108601846B1
:104F700000BD0000000C0140001001402DE9F0418F
:104F80000446BE2000F042FE4FF480702D490861B7
:104F90004000486105202C4908608020294948616B
:104FA00008618000086140100861400048612046A7
:104FB00003F07BFD05464FF06632244B03F088FD7D
:104FC000074603F045FD2049086080201D494861DF
:104FD00008618000086140100861400048610120BC
:104FE00019490860802017494861086180000861FC
:104FF0004010086140004861FF201349086080208C
:105000001049486108618000086140100861400053
:10501000486100200C49086080200A494861086105
:105020008000086140100861400048610020064986
:105030000860802003494861086180000861BDE87C
:10504000F0810000001001400C0C01406666044035
:10505000F0B5054600240027E2488079012805D1F3
:10506000E048808841F66311884208D1DD488079A4
:10507000F0B9DC48808841F66311884218D1082DC8
:1050800015D2DFE805F00406080A0C0E10120625FA
:105090000DE007250BE0042509E0052507E00125C3
:1050A00005E0002503E0032501E0022500BF00BF65
:1050B000082D1CD2DFE805F00406090C0F121518A4
:1050C00000BF14E044F0800411E044F040040EE01E
:1050D00044F0C0040BE044F0200408E044F0600415
:1050E00005E044F0A00402E044F0E00400BF00BF8B
:1050F000BC48808845F21051884202D14FF458577D
:1051000000E03627B748808849F24131884205D00F
:10511000B448808847F28971884201D144F008047C
:105120002146384600F08CFDAE48808841F6631178
:1051300088421DD004F0200068B1AA480088A9491F
:105140004988884214DAA74806884088A54908801B
:10515000084646800CE0A3480088A2494988884256
:1051600006DDA048068840889E490880084646809B
:105170009C48808845F2105188427DD199494889E0
:1051800000F044FD4FF48070974908614000486189
:10519000002096490860802093494861086180009A
:1051A000086190494989491C88B200F02FFD4FF4ED
:1051B00080708D4908614000486100208B4908607B
:1051C00080208949486108618000086185494989D2
:1051D000891C88B200F01AFD4FF480708249086182
:1051E000400048617F480088401E00127F490860E7
:1051F00080207D49486108618000086179494989BA
:10520000C91C88B200F002FD4FF480707649086135
:105210004000486173480078401EC0B2734908607E
:105220008020714948610861800008616D49888962
:1052300000F0ECFC4FF480706B490861400048615D
:1052400000206A4908608020674948610861800041
:10525000086164498989491C88B200F0D7FC4FF481
:105260008070614908614000486100205F49086022
:1052700080205D49486100E033E0086180000861FA
:1052800058498989891C88B200F0C0FC4FF48070AD
:10529000554908614000486152484088401E00124C
:1052A00052490860802050494861086180000861C7
:1052B0004C498989C91C88B200F0A8FC4FF4807061
:1052C000494908614000486146488078401EC0B2A4
:1052D00046490860802044494861086180000861AF
:1052E0007FE04049488900F091FC4FF480703E49CE
:1052F00008614000486100203C49086080203A492C
:105300004861086180000861401008614000486100
:1053100000203649086080203349486108618000D8
:10532000086140100861400048612E480088401E16
:1053300000122E49086080202B49486108618000D6
:105340000861401008614000486126480078401E0E
:10535000C0B2264908608020234948610861800066
:1053600008612049888900F051FC4FF480701E4983
:1053700008614000486100201C49086080201A49EB
:105380004861086180000861401008614000486180
:105390000020164908608020134948610861800098
:1053A000086140100861400048610E484088401E76
:1053B00000120E49086080200B4948610861800096
:1053C0000861401008614000486106488078401E2E
:1053D000C0B2064908608020034948610861800026
:1053E0000861F0BDB8980020001001400C0C01408D
:1053F00010B503460C46B248808841F663118842D6
:105400007ED1AF48807900283FD1AD480088401E4A
:10541000C01A83B2AA49488900F0F8FB4FF48070A3
:10542000A8490861400048610020A7490860802021
:10543000A44948610861800008614010086140008B
:1054400048610020A049086080209E4948610861A9
:1054500080000861401008614000486118129A49B4
:105460000860802097494861086180000861401009
:10547000086140004861D8B2934908608020914992
:10548000486108618000086141E08D49488900F069
:10549000BDFB4FF480708B490861400048611812D1
:1054A0008949086080208749486108618000086157
:1054B0004010086140004861D8B2834908608020EC
:1054C000804948610861800008614010086140001F
:1054D00048617B480088401E00127B49086080209C
:1054E0007849486108618000086140100861400007
:1054F000486173480078401EC0B27349086000E0FC
:1055000046E080206F4948610861800008616C496D
:10551000888900F07BFB4FF480706A490861400085
:105520004861201268490860802066494861086126
:10553000800008614010086140004861E0B26249A3
:10554000086080205F494861086180000861401060
:105550000861400048615A484088401E00125A497C
:105560000860802057494861086180000861401048
:1055700008614000486152488078401EC0B25249DC
:10558000086080204F49486108618000086196E00A
:105590004B48808845F21051884250D1484948898B
:1055A00000F034FB4FF480704649086140004861C8
:1055B000181245490860802042494861086180000E
:1055C00008613F494989491C88B200F01FFB4FF42C
:1055D00080703C49086140004861D8B23A4908608F
:1055E0008020384948610861800008613449888911
:1055F00000F00CFB4FF480703249086140004861B4
:1056000020123149086080202E49486108618000DD
:1056100008612B498989491C88B200F0F7FA4FF4D8
:1056200080702849086140004861E0B2264908605E
:105630008020244948610861800008613FE02049DA
:10564000488900F0E3FA4FF480701E490861400079
:10565000486118121C49086080201A494861086195
:10566000800008614010086140004861D8B21649C6
:105670000860802013494861086180000861104972
:10568000888900F0C3FA4FF480700E490861400029
:10569000486120120C49086080200A49486108616D
:1056A000800008614010086140004861E0B206498E
:1056B000086080200349486108618000086110BDCE
:1056C000B8980020001001400C0C01402DE9F04179
:1056D00004460D461646A019401E87B2E818401E23
:1056E0001FFA80F8D948808841F6631188427DD13D
:1056F000D6488079012879D0D4480088801B001BC7
:1057000084B2E818401E83B2D049488900F07EFA7E
:105710004FF48070CE490861400048612012CD49A5
:1057200008608020CA494861086180000861401013
:10573000086140004861E0B2C64908608020C44961
:1057400048610861800008614010086140004861BC
:10575000A019401E0012BF4908608020BC49486162
:105760000861800008614010086140004861A0198C
:10577000401EC0B2B74908608020B5494861086141
:1057800080000861B149888900F040FA4FF48070C8
:10579000AF490861400048612812AE490860802086
:1057A000AB49486108618000086140100861400011
:1057B0004861E8B2A74908608020A54948610861AE
:1057C0008000086140100861400048611812A1493A
:1057D000086080209E49486108618000086140108F
:1057E000086140004861D8B29A4900E007E00860CB
:1057F00080209749486108618000086124E193484E
:10580000808845F2105188427ED19049488900F045
:10581000FDF94FF480708E49086140004861201204
:105820008C49086080208A494861086180000861CD
:1058300086494989491C88B200F0E8F94FF4807024
:105840008349086140004861E0B2824908608020D5
:105850007F4948610861800008617C494989891C49
:1058600088B200F0D3F94FF48070794908614000A4
:10587000486138127749086080207549486108619D
:105880008000086171494989C91C88B200F0BEF9DD
:105890004FF480706E49086140004861F8B26D496C
:1058A000086080206A494861086180000861674992
:1058B000888900F0ABF94FF48070654908614000B9
:1058C0004861281263490860802061494861086185
:1058D000800008615D498989491C88B200F096F909
:1058E0004FF480705A49086140004861E8B2594954
:1058F000086080205649486108618000086153496A
:105900008989891C88B200E028E000F07FF94FF413
:1059100080704F490861400048614FEA28204D4996
:10592000086080204A494861086180000861474951
:105930008989C91C88B200F069F94FF48070444924
:1059400008614000486108F0FF004249086080207B
:105950003F49486108618000086175E03B4948891A
:1059600000F054F94FF480703949086140004861F3
:10597000201238490860802035494861086180005C
:1059800008614010086140004861E0B23149086098
:1059900080202F494861086180000861401008613B
:1059A0004000486138122B4908608020284948612E
:1059B0000861800008614010086140004861F8B249
:1059C00024490860802022494861086180000861FC
:1059D0001E49888900F01AF94FF480701C4908614B
:1059E0004000486128121B4908608020184948611E
:1059F0000861800008614010086140004861E8B219
:105A000014490860802012494861086180000861DB
:105A100040100861400048614FEA28200D490860A5
:105A200080200B49486108618000086140100861CE
:105A30004000486108F0FF000649086080200449E2
:105A40004861086180000861BDE8F081B8980020D5
:105A5000001001400C0C01402DE9F84F80460E4625
:105A600017461C46B3462046E31704EB5373DB107E
:105A700021464FEAE47C04EB5C7C4FEAEC0CA4EB9F
:105A8000CC0CBCF1000F02D04FF0010C01E04FF044
:105A9000000C6344224604EBD27C4FEA6C0C03FBFF
:105AA0000CF3DBB20093A7F12000C7B2002556E04B
:105AB0000C2C07D107EB47002B4901EB800010F8B5
:105AC000059013E0102C05D1284800EB071010F8C2
:105AD00005900BE0182C07D107EBC700244901EB18
